:0300E9000108000B
:10008F00EF1FAA0670011E4A600BE4FDEDC3947DBD
:05009F0050EE0D80F79A
:0100A4002239
:1000A500758920758DFD758BFDE4F587D28E759864
:0600B50050C298C299221E
:1000D10020B20C7F327E0012008F20B2020508226E
:0800E1008F993099FDC29922AC
:1000BB001200A5D2A11200D1AF081200E17F647E1D
:0600CB000012008F80EF1F
:03000000020003F8
:0C000300787FE4F6D8FD75810802004A01
:10000F000200BBE493A3F8E493A34003F68001F24C
:10001F0008DFF48029E493A3F85407240CC8C333F2
:10002F00C4540F4420C8834004F456800146F6DFC1
:10003F00E4800B01020408102040809000E9E47E68
:10004F00019360BCA3FF543F30E509541FFEE493B6
:10005F00A360010ECF54C025E060A840B8E493A37D
:10006F00FAE493A3F8E493A3C8C582C8CAC583CAA8
:10007F00F0A3C8C582C8CAC583CADFE9DEE780BE60
:0100EC000013
:00000001FF
