:09000E00080A02060405010900BC
:10083C004200BB00004200BD00004200BF0000416E
:03084C0000BA00EF
:040003007F0CDFFE91
:0100070022D6
:0B1196009000B6EBF0A3EAF0A3E9F034
:1011A100120003439020E4FFEFC39D501D9000B651
:1011B100E0FBA3E0FAA3E0F98F8275830012042F0C
:1011C100F5993099FDC2990F80DE1200035390DF2B
:0111D10022FB
:10065900759850438922758CFF758AF7758DFDD27F
:100669008ED28CD2A9D2ACD2AFE4F593F59475D9D8
:1006790080F5D8F5F9F5E975DA42F5F275DB42F559
:10068900F3D2DEF5EAF5EBF5FAF5FB43BB7043B3BC
:100699001053B4EF53B39F43B460D2C5D2B653904D
:1006A900FB43900243B00443B01053B0F753B0DF9B
:1006B9001200035390DF120B09E4FF1209D69000D0
:1006C90079120B047F011209D690007B120B047F6B
:1006D900021209D690007D120B047F031209D690ED
:1006E9000057120B047F041209D6900059120B040B
:1006F900900063A3A3E0FEEE5401FEEE700553B033
:10070900FB800343B004900063A3E0FDED5401FDB9
:10071900ED700553B0EF800343B010900063E0FC27
:10072900EC5401700553A0F7800343A008900063BF
:10073900A3A3A3E05404FFEF70064390020206BF8F
:060749005390FD0206BF03
:1009D600C2C5C2B6D2B7E4F5937594FFFDFC0DED22
:1009E600AA0470010C14C39464EA940040F0EF5416
:1009F600074440F580D2C5D2B6E4FCFD0DEDAE0449
:100A060070010C14C39464EE940040F07593FFE4F7
:100A1600F594FCFDD2C430C4100DEDAE0470010C8B
:100A260014C39488EE941340EDC2C5C2B7C2C6E49F
:100A3600FCFD0DEDAE0470010C14C39464EE94003D
:100A460040F0AB80D2C6E4FCFD0DEDAE0470010CA7
:100A560014C39464EE940040F0AF80D2B6D2B7D2FD
:090A6600C5EF540FFEAD03EBFFD8
:010A6F002264
:10074F0078AA7C007D017BFF7A00790E7E007F09FD
:10075F001203F090005DE0FF700302083690006A0C
:10076F00E0FEEFD39E4026D39000C0E0941E900091
:10077F00BFE09400400790006AE004802B9000C017
:10078F00E004F0703D9000BFE004F0803590005D14
:10079F00E0C39E50269000C0E0941E9000BFE094EE
:1007AF0000400890006AE014F080109000C0E00450
:1007BF00F0700F9000BFE004F08007E49000BFF0EE
:1007CF00A3F09000BEE004F070069000BDE004F0CE
:1007DF0090006AE0FFC374649FFFE49400FED3901F
:1007EF0000BEE09F9000BDE09E4041E4F0A3F0907A
:1007FF0000BAE024AAF582E43400F583E070049097
:10080F0000BAF0E5A05407FF9000BAE024AAF582E1
:10081F00E43400F583E0540FC454F044084FF5A0BE
:0C082F009000BAE004F022E490006AF0AF
:01083B00229A
:050B0400EEF0A3EFF08C
:100B090090005EE0FCA3A3A3E4FFFEFDEC5480FC8F
:100B190060791211D2EF605B90006EE0900226932B
:100B290075F003A42400F582E5F03400F583A3E011
:100B3900FAA3E0F91204F5E490006BF0A3F07B014D
:100B49007A00798B7D0612114C900091EEF0A3EF9B
:100B5900F0900091E0FEA3E0FDEEFCEDFFAD04EDA9
:100B6900900091CFF0A3EFF07B017A00798B7D089B
:100B790012119690005EE0FCA3E0FDA3E0FEA3E065
:0B0B8900FFEC547FFC90005E1204B8EB
:010B9400223E
:1011D2007B017A00797F7D0A12114CEEFCEFFEADA5
:1011E20004EDFF900089E0B5061BA3E0B507167871
:1011F2006D7C007D017B017A00797F7E007F0C127D
:0712020003F07F01227F00D1
:0112090022C2
:10084F00410062554200570000420059000042002B
:10085F0079000042007B000042007D000041005BF8
:10086F000041005C0041005D0041006800410069EB
:10087F000041006A004400630000000044005E0075
:0C088F0000000042006B00004100670008
:1000260000C1814001C0804101C0804100C18140C2
:1000360001C0804100C1814000C1814001C08041B2
:1000460001C0804100C1814000C1814001C08041A2
:1000560000C1814001C0804101C0804100C1814092
:1000660001C0804100C1814000C1814001C0804182
:1000760000C1814001C0804101C0804100C1814072
:1000860000C1814001C0804101C0804100C1814062
:1000960001C0804100C1814000C1814001C0804152
:1000A60001C0804100C1814000C1814001C0804142
:1000B60000C1814001C0804101C0804100C1814032
:1000C60000C1814001C0804101C0804100C1814022
:1000D60001C0804100C1814000C1814001C0804112
:1000E60000C1814001C0804101C0804100C1814002
:1000F60001C0804100C1814000C1814001C08041F2
:1001060001C0804100C1814000C1814001C08041E1
:1001160000C1814001C0804101C0804100C18140D1
:1001260000C0C101C30302C2C60607C705C5C40491
:10013600CC0C0DCD0FCFCE0E0ACACB0BC90908C801
:10014600D81819D91BDBDA1A1EDEDF1FDD1D1CDCF1
:1001560014D4D515D71716D6D21213D311D1D01061
:10016600F03031F133F3F23236F6F737F53534F451
:100176003CFCFD3DFF3F3EFEFA3A3BFB39F9F838C1
:1001860028E8E929EB2B2AEAEE2E2FEF2DEDEC2CB1
:10019600E42425E527E7E62622E2E323E12120E021
:1001A600A06061A163A3A26266A6A767A56564A411
:1001B6006CACAD6DAF6F6EAEAA6A6BAB69A9A86881
:1001C60078B8B979BB7B7ABABE7E7FBF7DBDBC7C71
:1001D600B47475B577B7B67672B2B373B17170B0E1
:1001E60050909151935352929656579755959454D1
:1001F6009C5C5D9D5F9F9E5E5A9A9B5B9959589841
:10020600884849894B8B8A4A4E8E8F4F8D4D4C8C30
:1002160044848545874746868242438341818040A0
:10022600000102030405060708090A0B0C0D0E0F50
:10023600101112131415161718191A1A1A1A1A1A4F
:100246001A1A1A1A1A1A1A1A1A1A1A1A1A1A1A1A08
:100256001A1A1A1A1A1A1A1A1A1A1A1A1A1A1A1AF8
:100266001A1A1A1A1A1A1A1A1A1A1A1A1A1A1A1AE8
:100276001A1A1A1A1A1A1A1A1A1A1A1A1A1A1A1AD8
:100286001A1A1A1A1A1A1A1A1A1A1A1A1A1A1A1AC8
:100296001A1A1A1A1A1A1A1A1A1A1A1A1A1A1A1AB8
:1002A6001A1A1A1A1A1A1A1A1A1A1A1A1A1A1A1AA8
:1002B6001A1A1A1A1A1A1A1A1A1A1A1A1A1A1A1A98
:1002C6001A1A1A1A1A1A1A1A1A1A1A1A1A1A1A1A88
:1002D6001A1A1A1A1A1A1A1A1A1A1A1A1A1A1A1A78
:1002E6001A1A1A1A1A1A1A1A1A1A1A1A1A1A1A1A68
:1002F6001A1A1A1A1A1A1A1A1A1A1A1A1A1A1A1A58
:100306001A1A1A1A1A1A1A1A1A1A1A1A1A1A1A1A47
:0A0316001A1A1A1A1A1A1A1A1B1CD6
:10089B0060570000FF120AFF1309FF132BFF134DC4
:1008AB00FF136FFF1391FF13B3FF13D3FF13F3FF6B
:1008BB000E4BFF0C21FF0D98FF10B8FF0EF2FF0F30
:1008CB003EFF0CA0FF1022FF1102FF0F8AFF0FD675
:1008DB00FF0D1CFF106DFF0DF5FF0E9FFF123DFF6F
:0B08EB000A70FF1270FF12A3FF12D66C
:10120A00900062E090008BF0900063E0FCA3E0FDA8
:10121A00A3E0FEA3E0540FFFEE5401FEED5401FDDE
:10122A00EC5401FC90008C1204B890006EE090001F
:03123A0090F0220F
:10130900900062E090008BF0900057E0FEA3E0FFB0
:10131900E4FCFD90008C1204B890006EE0900090FF
:02132900F022B0
:10132B00900062E090008BF0900059E0FEA3E0FF8C
:10133B00E4FCFD90008C1204B890006EE0900090DD
:02134B00F0228E
:10134D00900062E090008BF0900079E0FEA3E0FF4A
:10135D00E4FCFD90008C1204B890006EE0900090BB
:02136D00F0226C
:10136F00900062E090008BF090007BE0FEA3E0FF26
:10137F00E4FCFD90008C1204B890006EE090009099
:02138F00F0224A
:10139100900062E090008BF090007DE0FEA3E0FF02
:1013A100E4FCFD90008C1204B890006EE090009077
:0213B100F02228
:1013B300900062E090008BF0900068E0FFE4FCFD99
:1013C300FE90008C1204B890006EE0900090F02222
:1013D300900062E090008BF0900069E0FFE4FCFD78
:1013E300FE90008C1204B890006EE0900090F02202
:1013F300900062E090008BF090006AE0FFE4FCFD57
:10140300FE90008C1204B890006EE0900090F022E1
:100E4B00900062E090008BF0900063E0FCA3E0FD6B
:100E5B00A3E0FEA3E0540FFFEE5401FEED5401FDA1
:100E6B00EC5401FC90008C1204B890006EE09000E2
:100E7B0090F0900071A3A3A3E0FFC374FF9FF5FA5A
:100E8B00AFFAC374FF9FFFE49400FEE4FCFD9000F7
:040E9B008C0204B809
:100C2100900062E090008BF0900063E0FCA3E0FD97
:100C3100A3E0FEA3E0540FFFEE5401FEED5401FDCD
:100C4100EC5401FC90008C1204B890006EE090000E
:100C510090F0900071E0FCA3E0FDA3E0FEA3E0FFB3
:100C610078181204A5E47B64FAF9F8C312049450CD
:100C71000B90008C1204C4000000FF22900071A3AD
:100C8100A3A3E0FFC374FF9FF5FBAFFBC374FF9FFA
:0F0C9100FFE49400FEE4FCFD90008C1204B822F6
:100D9800900062E090008BF0900063E0FCA3E0FD1F
:100DA800A3E0FEA3E0540FFFEE5401FEED5401FD55
:100DB800EC5401FC90008C1204B890006EE0900096
:100DC80090F0900071E0FCA3E0FDA3E0FEA3E0FF3B
:100DD80078181204A5E47B64FAF9F8C31204944065
:0D0DE8000B900071A3A3A3E090005DF0222A
:1010B800900063E0FCA3E0FDA3E0FEA3E04408FF8A
:1010C800EC9000631204B8900062E090008BF090FE
:1010D8000063E0FCA3E0FDA3E0FEA3E0540FFFEEF5
:1010E8005401FEED5401FDEC5401FC90008C1204F7
:0A10F800B890006EE0900090F02226
:100EF200900063E0FCA3E0FDA3E0FEA3E0FFEE446C
:100F020001FEEC9000631204B8900062E090008B46
:100F1200F0900063E0FCA3E0FDA3E0FEA3E0540F29
:100F2200FFEE5401FEED5401FDEC5401FC90008CE7
:0C0F32001204B890006EE0900090F022D5
:100F3E00900063E0FCA3E0FDA3E0FEA3E0FFED4420
:100F4E0001FDEC9000631204B8900062E090008BFB
:100F5E00F0900063E0FCA3E0FDA3E0FEA3E0540FDD
:100F6E00FFEE5401FEED5401FDEC5401FC90008C9B
:0C0F7E001204B890006EE0900090F02289
:100CA000900063E0FCA3E0FDA3E0FEA3E04408FFA6
:100CB000EC9000631204B8900063E0FCA3E0FDA395
:100CC000E0FEA3E0FFEE4401FEEC9000631204B8E6
:100CD000900063E0FCA3E0FDA3E0FEA3E0FFED4491
:100CE00001FDEC9000631204B8900062E090008B6C
:100CF000F0900063E0FCA3E0FDA3E0FEA3E0540F4E
:100D0000FFEE5401FEED5401FDEC5401FC90008C0B
:0C0D10001204B890006EE0900090F022F9
:10102200900063E0FCA3E0FDA3E0FEA3E0FFEC443C
:1010320001FC9000631204B8900062E090008BF013
:10104200900063E0FCA3E0FDA3E0FEA3E0540FFFE9
:10105200EE5401FEED5401FDEC5401FC90008C12A3
:0B10620004B890006EE0900090F022B7
:10110200900063E0FCA3E0FDA3E0FEA3E054F7FF40
:10111200EC9000631204B8900062E090008BF090B3
:101122000063E0FCA3E0FDA3E0FEA3E0540FFFEEAA
:101132005401FEED5401FDEC5401FC90008C1204AC
:0A114200B890006EE0900090F022DB
:100F8A00900063E0FCA3E0FDA3E0FEA3E0FFEE54C3
:100F9A00FEFEEC9000631204B8900062E090008BB1
:100FAA00F0900063E0FCA3E0FDA3E0FEA3E0540F91
:100FBA00FFEE5401FEED5401FDEC5401FC90008C4F
:0C0FCA001204B890006EE0900090F0223D
:100FD600900063E0FCA3E0FDA3E0FEA3E0FFED5478
:100FE600FEFDEC9000631204B8900062E090008B66
:100FF600F0900063E0FCA3E0FDA3E0FEA3E0540F45
:10100600FFEE5401FEED5401FDEC5401FC90008C02
:0C1016001204B890006EE0900090F022F0
:100D1C00900063E0FCA3E0FDA3E0FEA3E054F7FF2A
:100D2C00EC9000631204B8900063E0FCA3E0FDA318
:100D3C00E0FEA3E0FFEE54FEFEEC9000631204B85C
:100D4C00900063E0FCA3E0FDA3E0FEA3E0FFED5404
:100D5C00FEFDEC9000631204B8900062E090008BF2
:100D6C00F0900063E0FCA3E0FDA3E0FEA3E0540FD1
:100D7C00FFEE5401FEED5401FDEC5401FC90008C8F
:0C0D8C001204B890006EE0900090F0227D
:10106D00900063E0FCA3E0FDA3E0FEA3E0FFEC54E1
:10107D00FEFC9000631204B8900062E090008BF0CB
:10108D00900063E0FCA3E0FDA3E0FEA3E0540FFF9E
:10109D00EE5401FEED5401FDEC5401FC90008C1258
:0B10AD0004B890006EE0900090F0226C
:100DF500900063E0FCA3E0FDA3E0FEA3E04404FF54
:100E0500EC9000631204B890009F745AF09000674C
:100E15007401F0900062E090008BF0900063E0FCBC
:100E2500A3E0FDA3E0FEA3E0540FFFEE5401FEEDA9
:100E35005401FDEC5401FC90008C1204B890006E36
:060E4500E0900090F02295
:100E9F00900063E0FCA3E0FDA3E0FEA3E054FBFFA2
:100EAF00EC9000631204B8E4900067F090009FF09C
:100EBF00900062E090008BF0900063E0FCA3E0FDF7
:100ECF00A3E0FEA3E0540FFFEE5401FEED5401FD2D
:100EDF00EC5401FC90008C1204B890006EE090006E
:030EEF0090F0225E
:10123D00900062E090008BF0900063E0FCA3E0FD75
:10124D00A3E0FEA3E0540FFFEE5401FEED5401FDAB
:10125D00EC5401FC90008C1204B890006EE09000EC
:03126D0090F022DC
:100A7000900063E0FCA3E0FDA3E0FEA3E054F7FFD9
:100A8000EC9000631204B8900063E0FCA3E0FDA3C7
:100A9000E0FEA3E0FFEE54FEFEEC9000631204B80B
:100AA000900063E0FCA3E0FDA3E0FEA3E0FFED54B3
:100AB000FEFDEC9000631204B8900063E0FCA3E03C
:100AC000FDA3E0FEA3E0FFEC54FEFC9000631204E3
:100AD000B8900062E090008BF0900063E0FCA3E02F
:100AE000FDA3E0FEA3E0540FFFEE5401FEED540120
:100AF000FDEC5401FC90008C1204B890006EE09064
:040B00000090F0224F
:10127000900062E090008BF0900063E0FCA3E0FD42
:10128000A3E0FEA3E0540FFFEE5401FEED5401FD78
:10129000EC5401FC90008C1204B890006EE09000B9
:0312A00090F022A9
:1012A300900062E090008BF0900063E0FCA3E0FD0F
:1012B300A3E0FEA3E0540FFFEE5401FEED5401FD45
:1012C300EC5401FC90008C1204B890006EE0900086
:0312D30090F02276
:1012D600900062E090008BF0900063E0FCA3E0FDDC
:1012E600A3E0FEA3E0540FFFEE5401FEED5401FD12
:1012F600EC5401FC90008C1204B890006EE0900053
:0313060090F02242
:0E114C009000B6EBF0A3EAF0A3E9F0A3EDF0FB
:10115A007FFF7DFF9000B9E0FE14F0EE602390005F
:10116A00B6E0FBA3E475F00112047EA9F0FA1204BA
:10117A00166DFE900026936FFDEE90012693FF8078
:0B118A00D3EFFE7C00E42DFFEC3EFEE6
:011195002237
:1008F6004200A6000F4200A200004200A0000042F3
:1009060000A800644100A4004100A50041009F002A
:03000B00020917D0
:10091700C0E0C0F0C083C082C0D075D000C000C0A6
:1009270001C002C003C004C005C006C007758CD44F
:10093700758ACC7591007592FF9000A3E004F07062
:10094700069000A2E004F0E59054FE90009F600539
:10095700E004F08002E4F0900063A3A3A3E054084E
:10096700FFEF701BC292900063E0FCA3E0FDA3E0E1
:10097700FEA3E054F7FFEC9000631204B8801990CF
:100987000063E0FCA3E0FDA3E0FEA3E04408FFEC66
:100997009000631204B8D2929000A6E0FEA3E0FF95
:1009A700C39000A3E09F9000A2E09E4007E4F0A35D
:1009B700F012074FD007D006D005D004D003D002DD
:0F09C700D001D000D0D0D082D083D0F0D0E03299
:030023000204FBD9
:1004FB00C0E0C0F0C083C082C0D075D000C000C0C7
:0D050B0001C002C003C004C005C006C00747
:100518009000B37401F0A37400F0A3747FF090000E
:10052800A4E0D3940C4002E4F09000A5E0D3940C2E
:100538004002E4F020980302063CC2989000A5E02F
:10054800FF2493F582E43400F583E599F074932F42
:10055800F582E43400F583E0FF900093E064556091
:1005680049900093E0645560349000A4E0D394006F
:10057800402BE4FE74942EF582E43400F583E0FD0C
:1005880074932EF582E43400F583EDF00EEEB40B8F
:10059800E39000A4E014F0A3E014F080C4EF6455E5
:1005A800600302063E9000A480069000A4E0700755
:1005B80004F0A3F002063E9000A4E004F0A3E004D7
:1005C800F09000A4E0C3940C406C7F0074932FF566
:1005D80082E43400F583E0FE9000B3E0FBA3E0FA88
:1005E800A3E0F98F82758300EE12045C0FEFB40C60
:1005F800DB7F0074952FF582E43400F583E0FE7408
:10060800932FF582E43400F583EEF00FEFB40AE39C
:100618009000A4E014F0A3E014F090005EE0FCA3C6
:10062800E0FDA3E0FEA3E0FFEC4480FC90005E1236
:0606380004B88002C29923
:10063E00D007D006D005D004D003D002D001D00010
:0B064E00D0D0D082D083D0F0D0E032BA
:03000000020B955B
:0C0B9500787FE4F6D8FD758107020BDCC8
:10032000E709F608DFFA8046E709F208DFFA803EBF
:1003300088828C83E709F0A3DFFA8032E309F608AC
:10034000DFFA8078E309F208DFFA807088828C8314
:10035000E309F0A3DFFA806489828A83E0A3F608C8
:10036000DFFA805889828A83E0A3F208DFFA804CA2
:1003700080D280FA80C680D4806980F28033801079
:1003800080A680EA809A80A880DA80E280CA8033E2
:1003900089828A83ECFAE493A3C8C582C8CCC5835A
:1003A000CCF0A3C8C582C8CCC583CCDFE9DEE7802A
:1003B0000D89828A83E493A3F608DFF9ECFAA9F0A9
:1003C000EDFB2289828A83ECFAE0A3C8C582C8CCFF
:1003D000C583CCF0A3C8C582C8CCC583CCDFEADE18
:1003E000E880DB89828A83E493A3F208DFF980CC7A
:1003F00088F0EF60010E4E60C388F0ED2402B40473
:100400000050B9F582EB2402B4040050AF23234519
:06041000822390037073CB
:10041600BB010689828A83E0225002E722BBFE02E4
:09042600E32289828A83E4932217
:10042F00BB010CE58229F582E5833AF583E0225082
:10043F0006E92582F8E622BBFE06E92582F8E222CC
:0D044F00E58229F582E5833AF583E49322E6
:10045C00F8BB010DE58229F582E5833AF583E8F0D6
:10046C00225006E92582C8F622BBFE05E92582C882
:02047C00F2226A
:10047E00A3F8E0C5F025F0F0E58215827002158331
:06048E00E0C838F0E8228E
:10049400EB9FF5F0EA9E42F0E99D42F0E89C45F0BE
:0104A4002235
:1004A500E8600FECC313FCED13FDEE13FEEF13FF35
:0304B500D8F12259
:0C04B800ECF0A3EDF0A3EEF0A3EFF022B7
:1004C400A8828583F0D083D0821204DB1204DB126D
:1004D40004DB1204DBE473E493A3C583C5F0C58392
:1004E400C8C582C8F0A3C583C5F0C583C8C582C882
:0104F40022E5
:0604F5008A838982E47392
:100BA100020659E493A3F8E493A34003F68001F20B
:100BB10008DFF48029E493A3F85407240CC8C33355
:100BC100C4540F4420C8834004F456800146F6DF24
:100BD100E4800B010204081020408090083CE47E70
:100BE100019360BCA3FF543F30E509541FFEE49319
:100BF100A360010ECF54C025E060A840B8E493A3E0
:100C0100FAE493A3F8E493A3C8C582C8CAC583CA0A
:100C1100F0A3C8C582C8CAC583CADFE9DEE780BEC2
:0109160000E0
:00000001FF
