:1002250028432932303131204C4353545544494FEA
:0102350000C8
:03023F00011000AB
:100172007D017F381201EA7D017F081201EA7D01CB
:100182007F011201EA7D017F061201EA7D017F0CE7
:030192000201EA7D
:1001FF0075A0FFC282D28100D2800000E5A020E767
:04020F00FBC280228C
:1001EA00ED60031201FFC282C281008FA000D2809B
:0501FA000000C280229C
:100213001201FFD282C281008FA000D2800000C2EF
:02022300802237
:1001B500AE07AC0353050153060FED60034306403C
:0F01C500430680AF06E4FD1201EAAF0402021305
:0A00FD008B088A09890A8C0B8D0C10
:10010700E4F50F530E01F50D530C0FF50BC3E50C7A
:100117009410E50B648094805023AF0CAD0EAB08B0
:10012700AA09A90A850F82758300120145FB1201EE
:0D013700B5050F050CE50C70D4050B80D04C
:010144002298
:10019500E4FDFCC3ED9FEC9E5015E4FBFA0BBB00A0
:0F01A500010AEB64794A70F50DBD00010C80E48E
:0101B4002228
:1001D400758920758DFD758BFDE4F587D28E759834
:0601E40050C298C29922EE
:090236003098FD859910C2982250
:10008F007F0A7E001201951201727BFF7A02792599
:10009F00E4F50DF50EFDFC1200FD1201D4C291C264
:1000AF00921202367F647E00120195E51075F0649E
:1000BF00842430FB7D01E4FF1201B5E51075F06477
:1000CF0084E5F075F00A842430FB7D017F01120175
:1000DF00B5E51075F00A84E5F02430FB7D017F0251
:0E00EF001201B5AB107D017F0F1201B580B379
:03000000020003F8
:0C000300787FE4F6D8FD75811002004AF9
:10014500BB010CE58229F582E5833AF583E022506F
:1001550006E92582F8E622BBFE06E92582F8E222B9
:0D016500E58229F582E5833AF583E49322D3
:10000F0002008FE493A3F8E493A34003F68001F278
:10001F0008DFF48029E493A3F85407240CC8C333F2
:10002F00C4540F4420C8834004F456800146F6DFC1
:10003F00E4800B010204081020408090023FE47E10
:10004F00019360BCA3FF543F30E509541FFEE493B6
:10005F00A360010ECF54C025E060A840B8E493A37D
:10006F00FAE493A3F8E493A3C8C582C8CAC583CAA8
:10007F00F0A3C8C582C8CAC583CADFE9DEE780BE60
:0102420000BB
:00000001FF
